{
	"data": {
		"bytecode": {
			"linkReferences": {},
			"object": "608060405234801561001057600080fd5b50610d49806100206000396000f3fe608060405234801561001057600080fd5b50600436106100625760003560e01c80630ce678791461006757806329e99f07146100975780633ad06b25146100c75780636ba61782146100f75780637ea517f114610127578063d39fa23314610157575b600080fd5b610081600480360381019061007c9190610a57565b610187565b60405161008e9190610b1d565b60405180910390f35b6100b160048036038101906100ac9190610a57565b61020d565b6040516100be9190610b4e565b60405180910390f35b6100e160048036038101906100dc9190610c9e565b61022b565b6040516100ee9190610b1d565b60405180910390f35b610111600480360381019061010c9190610a57565b610716565b60405161011e9190610b1d565b60405180910390f35b610141600480360381019061013c9190610a57565b6108fa565b60405161014e9190610b1d565b60405180910390f35b610171600480360381019061016c9190610a57565b6109c6565b60405161017e9190610b4e565b60405180910390f35b606060328211156101cf576040518060400160405280600481526020017f6d616c65000000000000000000000000000000000000000000000000000000008152509050610208565b6040518060400160405280600681526020017f66656d616c65000000000000000000000000000000000000000000000000000081525090505b919050565b600060328211156102215760019050610226565b600290505b919050565b60606040518060400160405280600881526020017f6e6967657269616e00000000000000000000000000000000000000000000000081525080519060200120828051906020012014156102b5576040518060400160405280601481526020017f596f75206172652066726f6d204e6967657269610000000000000000000000008152509050610711565b6040518060400160405280600681526020017f6765726d616e0000000000000000000000000000000000000000000000000000815250805190602001208280519060200120141561033d576040518060400160405280601481526020017f596f75206172652066726f6d204765726d616e790000000000000000000000008152509050610711565b6040518060400160405280600781526020017f627269746973680000000000000000000000000000000000000000000000000081525080519060200120828051906020012014156103c5576040518060400160405280601481526020017f596f75206172652066726f6d20456e676c616e640000000000000000000000008152509050610711565b6040518060400160405280600881526020017f616d65726963616e000000000000000000000000000000000000000000000000815250805190602001208280519060200120141561044d576040518060400160405280601a81526020017f596f75206172652066726f6d20556e69746564205374617465730000000000008152509050610711565b6040518060400160405280600781526020017f6368696e6573650000000000000000000000000000000000000000000000000081525080519060200120828051906020012014156104d5576040518060400160405280601281526020017f596f75206172652066726f6d204368696e6100000000000000000000000000008152509050610711565b6040518060400160405280600781526020017f66696e6e69736800000000000000000000000000000000000000000000000000815250805190602001208280519060200120141561055d576040518060400160405280601481526020017f596f75206172652066726f6d2046696e6c616e640000000000000000000000008152509050610711565b6040518060400160405280600a81526020017f6175737472616c69616e0000000000000000000000000000000000000000000081525080519060200120828051906020012014156105e5576040518060400160405280601681526020017f596f75206172652066726f6d204175737472616c6961000000000000000000008152509050610711565b6040518060400160405280600881526020017f63616e616469616e000000000000000000000000000000000000000000000000815250805190602001208280519060200120141561066d576040518060400160405280601381526020017f596f75206172652066726f6d2043616e616461000000000000000000000000008152509050610711565b6040518060400160405280600981526020017f6272617a696c69616e000000000000000000000000000000000000000000000081525080519060200120828051906020012014156106f5576040518060400160405280601381526020017f596f75206172652066726f6d204272617a696c000000000000000000000000008152509050610711565b6040518060600160405280602c8152602001610ce8602c913990505b919050565b6060600382101561075e576040518060400160405280600481526020017f626162790000000000000000000000000000000000000000000000000000000081525090506108f5565b600c8210156107a4576040518060400160405280600581526020017f6368696c6400000000000000000000000000000000000000000000000000000081525090506108f5565b60118210156107ea576040518060400160405280600881526020017f7465656e6167657200000000000000000000000000000000000000000000000081525090506108f5565b6012821415610830576040518060400160405280601381526020017f6f6c6420656e6f75676820746f206472696e6b0000000000000000000000000081525090506108f5565b601e821015610876576040518060400160405280600b81526020017f796f756e67206164756c7400000000000000000000000000000000000000000081525090506108f5565b60468210156108bc576040518060400160405280600581526020017f6164756c7400000000000000000000000000000000000000000000000000000081525090506108f5565b6040518060400160405280600781526020017f656c6465726c790000000000000000000000000000000000000000000000000081525090505b919050565b6060600a821015610942576040518060400160405280600681526020017f66656d616c65000000000000000000000000000000000000000000000000000081525090506109c1565b6014821015610988576040518060400160405280600481526020017f6d616c650000000000000000000000000000000000000000000000000000000081525090506109c1565b6040518060400160405280600b81526020017f7472616e7367656e64657200000000000000000000000000000000000000000081525090505b919050565b600060148210156109db57619c409050610a08565b60288210156109ef57620aae609050610a08565b6041821415610a025761d6d89050610a08565b614e2090505b919050565b6000604051905090565b600080fd5b600080fd5b6000819050919050565b610a3481610a21565b8114610a3f57600080fd5b50565b600081359050610a5181610a2b565b92915050565b600060208284031215610a6d57610a6c610a17565b5b6000610a7b84828501610a42565b91505092915050565b600081519050919050565b600082825260208201905092915050565b60005b83811015610abe578082015181840152602081019050610aa3565b83811115610acd576000848401525b50505050565b6000601f19601f8301169050919050565b6000610aef82610a84565b610af98185610a8f565b9350610b09818560208601610aa0565b610b1281610ad3565b840191505092915050565b60006020820190508181036000830152610b378184610ae4565b905092915050565b610b4881610a21565b82525050565b6000602082019050610b636000830184610b3f565b92915050565b600080fd5b600080fd5b7f4e487b7100000000000000000000000000000000000000000000000000000000600052604160045260246000fd5b610bab82610ad3565b810181811067ffffffffffffffff82111715610bca57610bc9610b73565b5b80604052505050565b6000610bdd610a0d565b9050610be98282610ba2565b919050565b600067ffffffffffffffff821115610c0957610c08610b73565b5b610c1282610ad3565b9050602081019050919050565b82818337600083830152505050565b6000610c41610c3c84610bee565b610bd3565b905082815260208101848484011115610c5d57610c5c610b6e565b5b610c68848285610c1f565b509392505050565b600082601f830112610c8557610c84610b69565b5b8135610c95848260208601610c2e565b91505092915050565b600060208284031215610cb457610cb3610a17565b5b600082013567ffffffffffffffff811115610cd257610cd1610a1c565b5b610cde84828501610c70565b9150509291505056fe596f75206172652066726f6d206120636f756e747279204920776f756c64206c696b6520746f207669736974a26469706673582212204a7771bdc14f363ec45d5dec890c6080b0d79d8823a1497d267308bb078536ca64736f6c634300080c0033",
			"opcodes": "PUSH1 0x80 PUSH1 0x40 MSTORE CALLVALUE DUP1 ISZERO PUSH2 0x10 JUMPI PUSH1 0x0 DUP1 REVERT JUMPDEST POP PUSH2 0xD49 DUP1 PUSH2 0x20 PUSH1 0x0 CODECOPY PUSH1 0x0 RETURN INVALID PUSH1 0x80 PUSH1 0x40 MSTORE CALLVALUE DUP1 ISZERO PUSH2 0x10 JUMPI PUSH1 0x0 DUP1 REVERT JUMPDEST POP PUSH1 0x4 CALLDATASIZE LT PUSH2 0x62 JUMPI PUSH1 0x0 CALLDATALOAD PUSH1 0xE0 SHR DUP1 PUSH4 0xCE67879 EQ PUSH2 0x67 JUMPI DUP1 PUSH4 0x29E99F07 EQ PUSH2 0x97 JUMPI DUP1 PUSH4 0x3AD06B25 EQ PUSH2 0xC7 JUMPI DUP1 PUSH4 0x6BA61782 EQ PUSH2 0xF7 JUMPI DUP1 PUSH4 0x7EA517F1 EQ PUSH2 0x127 JUMPI DUP1 PUSH4 0xD39FA233 EQ PUSH2 0x157 JUMPI JUMPDEST PUSH1 0x0 DUP1 REVERT JUMPDEST PUSH2 0x81 PUSH1 0x4 DUP1 CALLDATASIZE SUB DUP2 ADD SWAP1 PUSH2 0x7C SWAP2 SWAP1 PUSH2 0xA57 JUMP JUMPDEST PUSH2 0x187 JUMP JUMPDEST PUSH1 0x40 MLOAD PUSH2 0x8E SWAP2 SWAP1 PUSH2 0xB1D JUMP JUMPDEST PUSH1 0x40 MLOAD DUP1 SWAP2 SUB SWAP1 RETURN JUMPDEST PUSH2 0xB1 PUSH1 0x4 DUP1 CALLDATASIZE SUB DUP2 ADD SWAP1 PUSH2 0xAC SWAP2 SWAP1 PUSH2 0xA57 JUMP JUMPDEST PUSH2 0x20D JUMP JUMPDEST PUSH1 0x40 MLOAD PUSH2 0xBE SWAP2 SWAP1 PUSH2 0xB4E JUMP JUMPDEST PUSH1 0x40 MLOAD DUP1 SWAP2 SUB SWAP1 RETURN JUMPDEST PUSH2 0xE1 PUSH1 0x4 DUP1 CALLDATASIZE SUB DUP2 ADD SWAP1 PUSH2 0xDC SWAP2 SWAP1 PUSH2 0xC9E JUMP JUMPDEST PUSH2 0x22B JUMP JUMPDEST PUSH1 0x40 MLOAD PUSH2 0xEE SWAP2 SWAP1 PUSH2 0xB1D JUMP JUMPDEST PUSH1 0x40 MLOAD DUP1 SWAP2 SUB SWAP1 RETURN JUMPDEST PUSH2 0x111 PUSH1 0x4 DUP1 CALLDATASIZE SUB DUP2 ADD SWAP1 PUSH2 0x10C SWAP2 SWAP1 PUSH2 0xA57 JUMP JUMPDEST PUSH2 0x716 JUMP JUMPDEST PUSH1 0x40 MLOAD PUSH2 0x11E SWAP2 SWAP1 PUSH2 0xB1D JUMP JUMPDEST PUSH1 0x40 MLOAD DUP1 SWAP2 SUB SWAP1 RETURN JUMPDEST PUSH2 0x141 PUSH1 0x4 DUP1 CALLDATASIZE SUB DUP2 ADD SWAP1 PUSH2 0x13C SWAP2 SWAP1 PUSH2 0xA57 JUMP JUMPDEST PUSH2 0x8FA JUMP JUMPDEST PUSH1 0x40 MLOAD PUSH2 0x14E SWAP2 SWAP1 PUSH2 0xB1D JUMP JUMPDEST PUSH1 0x40 MLOAD DUP1 SWAP2 SUB SWAP1 RETURN JUMPDEST PUSH2 0x171 PUSH1 0x4 DUP1 CALLDATASIZE SUB DUP2 ADD SWAP1 PUSH2 0x16C SWAP2 SWAP1 PUSH2 0xA57 JUMP JUMPDEST PUSH2 0x9C6 JUMP JUMPDEST PUSH1 0x40 MLOAD PUSH2 0x17E SWAP2 SWAP1 PUSH2 0xB4E JUMP JUMPDEST PUSH1 0x40 MLOAD DUP1 SWAP2 SUB SWAP1 RETURN JUMPDEST PUSH1 0x60 PUSH1 0x32 DUP3 GT ISZERO PUSH2 0x1CF JUMPI PUSH1 0x40 MLOAD DUP1 PUSH1 0x40 ADD PUSH1 0x40 MSTORE DUP1 PUSH1 0x4 DUP2 MSTORE PUSH1 0x20 ADD PUSH32 0x6D616C6500000000000000000000000000000000000000000000000000000000 DUP2 MSTORE POP SWAP1 POP PUSH2 0x208 JUMP JUMPDEST PUSH1 0x40 MLOAD DUP1 PUSH1 0x40 ADD PUSH1 0x40 MSTORE DUP1 PUSH1 0x6 DUP2 MSTORE PUSH1 0x20 ADD PUSH32 0x66656D616C650000000000000000000000000000000000000000000000000000 DUP2 MSTORE POP SWAP1 POP JUMPDEST SWAP2 SWAP1 POP JUMP JUMPDEST PUSH1 0x0 PUSH1 0x32 DUP3 GT ISZERO PUSH2 0x221 JUMPI PUSH1 0x1 SWAP1 POP PUSH2 0x226 JUMP JUMPDEST PUSH1 0x2 SWAP1 POP JUMPDEST SWAP2 SWAP1 POP JUMP JUMPDEST PUSH1 0x60 PUSH1 0x40 MLOAD DUP1 PUSH1 0x40 ADD PUSH1 0x40 MSTORE DUP1 PUSH1 0x8 DUP2 MSTORE PUSH1 0x20 ADD PUSH32 0x6E6967657269616E000000000000000000000000000000000000000000000000 DUP2 MSTORE POP DUP1 MLOAD SWAP1 PUSH1 0x20 ADD KECCAK256 DUP3 DUP1 MLOAD SWAP1 PUSH1 0x20 ADD KECCAK256 EQ ISZERO PUSH2 0x2B5 JUMPI PUSH1 0x40 MLOAD DUP1 PUSH1 0x40 ADD PUSH1 0x40 MSTORE DUP1 PUSH1 0x14 DUP2 MSTORE PUSH1 0x20 ADD PUSH32 0x596F75206172652066726F6D204E696765726961000000000000000000000000 DUP2 MSTORE POP SWAP1 POP PUSH2 0x711 JUMP JUMPDEST PUSH1 0x40 MLOAD DUP1 PUSH1 0x40 ADD PUSH1 0x40 MSTORE DUP1 PUSH1 0x6 DUP2 MSTORE PUSH1 0x20 ADD PUSH32 0x6765726D616E0000000000000000000000000000000000000000000000000000 DUP2 MSTORE POP DUP1 MLOAD SWAP1 PUSH1 0x20 ADD KECCAK256 DUP3 DUP1 MLOAD SWAP1 PUSH1 0x20 ADD KECCAK256 EQ ISZERO PUSH2 0x33D JUMPI PUSH1 0x40 MLOAD DUP1 PUSH1 0x40 ADD PUSH1 0x40 MSTORE DUP1 PUSH1 0x14 DUP2 MSTORE PUSH1 0x20 ADD PUSH32 0x596F75206172652066726F6D204765726D616E79000000000000000000000000 DUP2 MSTORE POP SWAP1 POP PUSH2 0x711 JUMP JUMPDEST PUSH1 0x40 MLOAD DUP1 PUSH1 0x40 ADD PUSH1 0x40 MSTORE DUP1 PUSH1 0x7 DUP2 MSTORE PUSH1 0x20 ADD PUSH32 0x6272697469736800000000000000000000000000000000000000000000000000 DUP2 MSTORE POP DUP1 MLOAD SWAP1 PUSH1 0x20 ADD KECCAK256 DUP3 DUP1 MLOAD SWAP1 PUSH1 0x20 ADD KECCAK256 EQ ISZERO PUSH2 0x3C5 JUMPI PUSH1 0x40 MLOAD DUP1 PUSH1 0x40 ADD PUSH1 0x40 MSTORE DUP1 PUSH1 0x14 DUP2 MSTORE PUSH1 0x20 ADD PUSH32 0x596F75206172652066726F6D20456E676C616E64000000000000000000000000 DUP2 MSTORE POP SWAP1 POP PUSH2 0x711 JUMP JUMPDEST PUSH1 0x40 MLOAD DUP1 PUSH1 0x40 ADD PUSH1 0x40 MSTORE DUP1 PUSH1 0x8 DUP2 MSTORE PUSH1 0x20 ADD PUSH32 0x616D65726963616E000000000000000000000000000000000000000000000000 DUP2 MSTORE POP DUP1 MLOAD SWAP1 PUSH1 0x20 ADD KECCAK256 DUP3 DUP1 MLOAD SWAP1 PUSH1 0x20 ADD KECCAK256 EQ ISZERO PUSH2 0x44D JUMPI PUSH1 0x40 MLOAD DUP1 PUSH1 0x40 ADD PUSH1 0x40 MSTORE DUP1 PUSH1 0x1A DUP2 MSTORE PUSH1 0x20 ADD PUSH32 0x596F75206172652066726F6D20556E6974656420537461746573000000000000 DUP2 MSTORE POP SWAP1 POP PUSH2 0x711 JUMP JUMPDEST PUSH1 0x40 MLOAD DUP1 PUSH1 0x40 ADD PUSH1 0x40 MSTORE DUP1 PUSH1 0x7 DUP2 MSTORE PUSH1 0x20 ADD PUSH32 0x6368696E65736500000000000000000000000000000000000000000000000000 DUP2 MSTORE POP DUP1 MLOAD SWAP1 PUSH1 0x20 ADD KECCAK256 DUP3 DUP1 MLOAD SWAP1 PUSH1 0x20 ADD KECCAK256 EQ ISZERO PUSH2 0x4D5 JUMPI PUSH1 0x40 MLOAD DUP1 PUSH1 0x40 ADD PUSH1 0x40 MSTORE DUP1 PUSH1 0x12 DUP2 MSTORE PUSH1 0x20 ADD PUSH32 0x596F75206172652066726F6D204368696E610000000000000000000000000000 DUP2 MSTORE POP SWAP1 POP PUSH2 0x711 JUMP JUMPDEST PUSH1 0x40 MLOAD DUP1 PUSH1 0x40 ADD PUSH1 0x40 MSTORE DUP1 PUSH1 0x7 DUP2 MSTORE PUSH1 0x20 ADD PUSH32 0x66696E6E69736800000000000000000000000000000000000000000000000000 DUP2 MSTORE POP DUP1 MLOAD SWAP1 PUSH1 0x20 ADD KECCAK256 DUP3 DUP1 MLOAD SWAP1 PUSH1 0x20 ADD KECCAK256 EQ ISZERO PUSH2 0x55D JUMPI PUSH1 0x40 MLOAD DUP1 PUSH1 0x40 ADD PUSH1 0x40 MSTORE DUP1 PUSH1 0x14 DUP2 MSTORE PUSH1 0x20 ADD PUSH32 0x596F75206172652066726F6D2046696E6C616E64000000000000000000000000 DUP2 MSTORE POP SWAP1 POP PUSH2 0x711 JUMP JUMPDEST PUSH1 0x40 MLOAD DUP1 PUSH1 0x40 ADD PUSH1 0x40 MSTORE DUP1 PUSH1 0xA DUP2 MSTORE PUSH1 0x20 ADD PUSH32 0x6175737472616C69616E00000000000000000000000000000000000000000000 DUP2 MSTORE POP DUP1 MLOAD SWAP1 PUSH1 0x20 ADD KECCAK256 DUP3 DUP1 MLOAD SWAP1 PUSH1 0x20 ADD KECCAK256 EQ ISZERO PUSH2 0x5E5 JUMPI PUSH1 0x40 MLOAD DUP1 PUSH1 0x40 ADD PUSH1 0x40 MSTORE DUP1 PUSH1 0x16 DUP2 MSTORE PUSH1 0x20 ADD PUSH32 0x596F75206172652066726F6D204175737472616C696100000000000000000000 DUP2 MSTORE POP SWAP1 POP PUSH2 0x711 JUMP JUMPDEST PUSH1 0x40 MLOAD DUP1 PUSH1 0x40 ADD PUSH1 0x40 MSTORE DUP1 PUSH1 0x8 DUP2 MSTORE PUSH1 0x20 ADD PUSH32 0x63616E616469616E000000000000000000000000000000000000000000000000 DUP2 MSTORE POP DUP1 MLOAD SWAP1 PUSH1 0x20 ADD KECCAK256 DUP3 DUP1 MLOAD SWAP1 PUSH1 0x20 ADD KECCAK256 EQ ISZERO PUSH2 0x66D JUMPI PUSH1 0x40 MLOAD DUP1 PUSH1 0x40 ADD PUSH1 0x40 MSTORE DUP1 PUSH1 0x13 DUP2 MSTORE PUSH1 0x20 ADD PUSH32 0x596F75206172652066726F6D2043616E61646100000000000000000000000000 DUP2 MSTORE POP SWAP1 POP PUSH2 0x711 JUMP JUMPDEST PUSH1 0x40 MLOAD DUP1 PUSH1 0x40 ADD PUSH1 0x40 MSTORE DUP1 PUSH1 0x9 DUP2 MSTORE PUSH1 0x20 ADD PUSH32 0x6272617A696C69616E0000000000000000000000000000000000000000000000 DUP2 MSTORE POP DUP1 MLOAD SWAP1 PUSH1 0x20 ADD KECCAK256 DUP3 DUP1 MLOAD SWAP1 PUSH1 0x20 ADD KECCAK256 EQ ISZERO PUSH2 0x6F5 JUMPI PUSH1 0x40 MLOAD DUP1 PUSH1 0x40 ADD PUSH1 0x40 MSTORE DUP1 PUSH1 0x13 DUP2 MSTORE PUSH1 0x20 ADD PUSH32 0x596F75206172652066726F6D204272617A696C00000000000000000000000000 DUP2 MSTORE POP SWAP1 POP PUSH2 0x711 JUMP JUMPDEST PUSH1 0x40 MLOAD DUP1 PUSH1 0x60 ADD PUSH1 0x40 MSTORE DUP1 PUSH1 0x2C DUP2 MSTORE PUSH1 0x20 ADD PUSH2 0xCE8 PUSH1 0x2C SWAP2 CODECOPY SWAP1 POP JUMPDEST SWAP2 SWAP1 POP JUMP JUMPDEST PUSH1 0x60 PUSH1 0x3 DUP3 LT ISZERO PUSH2 0x75E JUMPI PUSH1 0x40 MLOAD DUP1 PUSH1 0x40 ADD PUSH1 0x40 MSTORE DUP1 PUSH1 0x4 DUP2 MSTORE PUSH1 0x20 ADD PUSH32 0x6261627900000000000000000000000000000000000000000000000000000000 DUP2 MSTORE POP SWAP1 POP PUSH2 0x8F5 JUMP JUMPDEST PUSH1 0xC DUP3 LT ISZERO PUSH2 0x7A4 JUMPI PUSH1 0x40 MLOAD DUP1 PUSH1 0x40 ADD PUSH1 0x40 MSTORE DUP1 PUSH1 0x5 DUP2 MSTORE PUSH1 0x20 ADD PUSH32 0x6368696C64000000000000000000000000000000000000000000000000000000 DUP2 MSTORE POP SWAP1 POP PUSH2 0x8F5 JUMP JUMPDEST PUSH1 0x11 DUP3 LT ISZERO PUSH2 0x7EA JUMPI PUSH1 0x40 MLOAD DUP1 PUSH1 0x40 ADD PUSH1 0x40 MSTORE DUP1 PUSH1 0x8 DUP2 MSTORE PUSH1 0x20 ADD PUSH32 0x7465656E61676572000000000000000000000000000000000000000000000000 DUP2 MSTORE POP SWAP1 POP PUSH2 0x8F5 JUMP JUMPDEST PUSH1 0x12 DUP3 EQ ISZERO PUSH2 0x830 JUMPI PUSH1 0x40 MLOAD DUP1 PUSH1 0x40 ADD PUSH1 0x40 MSTORE DUP1 PUSH1 0x13 DUP2 MSTORE PUSH1 0x20 ADD PUSH32 0x6F6C6420656E6F75676820746F206472696E6B00000000000000000000000000 DUP2 MSTORE POP SWAP1 POP PUSH2 0x8F5 JUMP JUMPDEST PUSH1 0x1E DUP3 LT ISZERO PUSH2 0x876 JUMPI PUSH1 0x40 MLOAD DUP1 PUSH1 0x40 ADD PUSH1 0x40 MSTORE DUP1 PUSH1 0xB DUP2 MSTORE PUSH1 0x20 ADD PUSH32 0x796F756E67206164756C74000000000000000000000000000000000000000000 DUP2 MSTORE POP SWAP1 POP PUSH2 0x8F5 JUMP JUMPDEST PUSH1 0x46 DUP3 LT ISZERO PUSH2 0x8BC JUMPI PUSH1 0x40 MLOAD DUP1 PUSH1 0x40 ADD PUSH1 0x40 MSTORE DUP1 PUSH1 0x5 DUP2 MSTORE PUSH1 0x20 ADD PUSH32 0x6164756C74000000000000000000000000000000000000000000000000000000 DUP2 MSTORE POP SWAP1 POP PUSH2 0x8F5 JUMP JUMPDEST PUSH1 0x40 MLOAD DUP1 PUSH1 0x40 ADD PUSH1 0x40 MSTORE DUP1 PUSH1 0x7 DUP2 MSTORE PUSH1 0x20 ADD PUSH32 0x656C6465726C7900000000000000000000000000000000000000000000000000 DUP2 MSTORE POP SWAP1 POP JUMPDEST SWAP2 SWAP1 POP JUMP JUMPDEST PUSH1 0x60 PUSH1 0xA DUP3 LT ISZERO PUSH2 0x942 JUMPI PUSH1 0x40 MLOAD DUP1 PUSH1 0x40 ADD PUSH1 0x40 MSTORE DUP1 PUSH1 0x6 DUP2 MSTORE PUSH1 0x20 ADD PUSH32 0x66656D616C650000000000000000000000000000000000000000000000000000 DUP2 MSTORE POP SWAP1 POP PUSH2 0x9C1 JUMP JUMPDEST PUSH1 0x14 DUP3 LT ISZERO PUSH2 0x988 JUMPI PUSH1 0x40 MLOAD DUP1 PUSH1 0x40 ADD PUSH1 0x40 MSTORE DUP1 PUSH1 0x4 DUP2 MSTORE PUSH1 0x20 ADD PUSH32 0x6D616C6500000000000000000000000000000000000000000000000000000000 DUP2 MSTORE POP SWAP1 POP PUSH2 0x9C1 JUMP JUMPDEST PUSH1 0x40 MLOAD DUP1 PUSH1 0x40 ADD PUSH1 0x40 MSTORE DUP1 PUSH1 0xB DUP2 MSTORE PUSH1 0x20 ADD PUSH32 0x7472616E7367656E646572000000000000000000000000000000000000000000 DUP2 MSTORE POP SWAP1 POP JUMPDEST SWAP2 SWAP1 POP JUMP JUMPDEST PUSH1 0x0 PUSH1 0x14 DUP3 LT ISZERO PUSH2 0x9DB JUMPI PUSH2 0x9C40 SWAP1 POP PUSH2 0xA08 JUMP JUMPDEST PUSH1 0x28 DUP3 LT ISZERO PUSH2 0x9EF JUMPI PUSH3 0xAAE60 SWAP1 POP PUSH2 0xA08 JUMP JUMPDEST PUSH1 0x41 DUP3 EQ ISZERO PUSH2 0xA02 JUMPI PUSH2 0xD6D8 SWAP1 POP PUSH2 0xA08 JUMP JUMPDEST PUSH2 0x4E20 SWAP1 POP JUMPDEST SWAP2 SWAP1 POP JUMP JUMPDEST PUSH1 0x0 PUSH1 0x40 MLOAD SWAP1 POP SWAP1 JUMP JUMPDEST PUSH1 0x0 DUP1 REVERT JUMPDEST PUSH1 0x0 DUP1 REVERT JUMPDEST PUSH1 0x0 DUP2 SWAP1 POP SWAP2 SWAP1 POP JUMP JUMPDEST PUSH2 0xA34 DUP2 PUSH2 0xA21 JUMP JUMPDEST DUP2 EQ PUSH2 0xA3F JUMPI PUSH1 0x0 DUP1 REVERT JUMPDEST POP JUMP JUMPDEST PUSH1 0x0 DUP2 CALLDATALOAD SWAP1 POP PUSH2 0xA51 DUP2 PUSH2 0xA2B JUMP JUMPDEST SWAP3 SWAP2 POP POP JUMP JUMPDEST PUSH1 0x0 PUSH1 0x20 DUP3 DUP5 SUB SLT ISZERO PUSH2 0xA6D JUMPI PUSH2 0xA6C PUSH2 0xA17 JUMP JUMPDEST JUMPDEST PUSH1 0x0 PUSH2 0xA7B DUP5 DUP3 DUP6 ADD PUSH2 0xA42 JUMP JUMPDEST SWAP2 POP POP SWAP3 SWAP2 POP POP JUMP JUMPDEST PUSH1 0x0 DUP2 MLOAD SWAP1 POP SWAP2 SWAP1 POP JUMP JUMPDEST PUSH1 0x0 DUP3 DUP3 MSTORE PUSH1 0x20 DUP3 ADD SWAP1 POP SWAP3 SWAP2 POP POP JUMP JUMPDEST PUSH1 0x0 JUMPDEST DUP4 DUP2 LT ISZERO PUSH2 0xABE JUMPI DUP1 DUP3 ADD MLOAD DUP2 DUP5 ADD MSTORE PUSH1 0x20 DUP2 ADD SWAP1 POP PUSH2 0xAA3 JUMP JUMPDEST DUP4 DUP2 GT ISZERO PUSH2 0xACD JUMPI PUSH1 0x0 DUP5 DUP5 ADD MSTORE JUMPDEST POP POP POP POP JUMP JUMPDEST PUSH1 0x0 PUSH1 0x1F NOT PUSH1 0x1F DUP4 ADD AND SWAP1 POP SWAP2 SWAP1 POP JUMP JUMPDEST PUSH1 0x0 PUSH2 0xAEF DUP3 PUSH2 0xA84 JUMP JUMPDEST PUSH2 0xAF9 DUP2 DUP6 PUSH2 0xA8F JUMP JUMPDEST SWAP4 POP PUSH2 0xB09 DUP2 DUP6 PUSH1 0x20 DUP7 ADD PUSH2 0xAA0 JUMP JUMPDEST PUSH2 0xB12 DUP2 PUSH2 0xAD3 JUMP JUMPDEST DUP5 ADD SWAP2 POP POP SWAP3 SWAP2 POP POP JUMP JUMPDEST PUSH1 0x0 PUSH1 0x20 DUP3 ADD SWAP1 POP DUP2 DUP2 SUB PUSH1 0x0 DUP4 ADD MSTORE PUSH2 0xB37 DUP2 DUP5 PUSH2 0xAE4 JUMP JUMPDEST SWAP1 POP SWAP3 SWAP2 POP POP JUMP JUMPDEST PUSH2 0xB48 DUP2 PUSH2 0xA21 JUMP JUMPDEST DUP3 MSTORE POP POP JUMP JUMPDEST PUSH1 0x0 PUSH1 0x20 DUP3 ADD SWAP1 POP PUSH2 0xB63 PUSH1 0x0 DUP4 ADD DUP5 PUSH2 0xB3F JUMP JUMPDEST SWAP3 SWAP2 POP POP JUMP JUMPDEST PUSH1 0x0 DUP1 REVERT JUMPDEST PUSH1 0x0 DUP1 REVERT JUMPDEST PUSH32 0x4E487B7100000000000000000000000000000000000000000000000000000000 PUSH1 0x0 MSTORE PUSH1 0x41 PUSH1 0x4 MSTORE PUSH1 0x24 PUSH1 0x0 REVERT JUMPDEST PUSH2 0xBAB DUP3 PUSH2 0xAD3 JUMP JUMPDEST DUP2 ADD DUP2 DUP2 LT PUSH8 0xFFFFFFFFFFFFFFFF DUP3 GT OR ISZERO PUSH2 0xBCA JUMPI PUSH2 0xBC9 PUSH2 0xB73 JUMP JUMPDEST JUMPDEST DUP1 PUSH1 0x40 MSTORE POP POP POP JUMP JUMPDEST PUSH1 0x0 PUSH2 0xBDD PUSH2 0xA0D JUMP JUMPDEST SWAP1 POP PUSH2 0xBE9 DUP3 DUP3 PUSH2 0xBA2 JUMP JUMPDEST SWAP2 SWAP1 POP JUMP JUMPDEST PUSH1 0x0 PUSH8 0xFFFFFFFFFFFFFFFF DUP3 GT ISZERO PUSH2 0xC09 JUMPI PUSH2 0xC08 PUSH2 0xB73 JUMP JUMPDEST JUMPDEST PUSH2 0xC12 DUP3 PUSH2 0xAD3 JUMP JUMPDEST SWAP1 POP PUSH1 0x20 DUP2 ADD SWAP1 POP SWAP2 SWAP1 POP JUMP JUMPDEST DUP3 DUP2 DUP4 CALLDATACOPY PUSH1 0x0 DUP4 DUP4 ADD MSTORE POP POP POP JUMP JUMPDEST PUSH1 0x0 PUSH2 0xC41 PUSH2 0xC3C DUP5 PUSH2 0xBEE JUMP JUMPDEST PUSH2 0xBD3 JUMP JUMPDEST SWAP1 POP DUP3 DUP2 MSTORE PUSH1 0x20 DUP2 ADD DUP5 DUP5 DUP5 ADD GT ISZERO PUSH2 0xC5D JUMPI PUSH2 0xC5C PUSH2 0xB6E JUMP JUMPDEST JUMPDEST PUSH2 0xC68 DUP5 DUP3 DUP6 PUSH2 0xC1F JUMP JUMPDEST POP SWAP4 SWAP3 POP POP POP JUMP JUMPDEST PUSH1 0x0 DUP3 PUSH1 0x1F DUP4 ADD SLT PUSH2 0xC85 JUMPI PUSH2 0xC84 PUSH2 0xB69 JUMP JUMPDEST JUMPDEST DUP2 CALLDATALOAD PUSH2 0xC95 DUP5 DUP3 PUSH1 0x20 DUP7 ADD PUSH2 0xC2E JUMP JUMPDEST SWAP2 POP POP SWAP3 SWAP2 POP POP JUMP JUMPDEST PUSH1 0x0 PUSH1 0x20 DUP3 DUP5 SUB SLT ISZERO PUSH2 0xCB4 JUMPI PUSH2 0xCB3 PUSH2 0xA17 JUMP JUMPDEST JUMPDEST PUSH1 0x0 DUP3 ADD CALLDATALOAD PUSH8 0xFFFFFFFFFFFFFFFF DUP2 GT ISZERO PUSH2 0xCD2 JUMPI PUSH2 0xCD1 PUSH2 0xA1C JUMP JUMPDEST JUMPDEST PUSH2 0xCDE DUP5 DUP3 DUP6 ADD PUSH2 0xC70 JUMP JUMPDEST SWAP2 POP POP SWAP3 SWAP2 POP POP JUMP INVALID MSIZE PUSH16 0x75206172652066726F6D206120636F75 PUSH15 0x747279204920776F756C64206C696B PUSH6 0x20746F207669 PUSH20 0x6974A26469706673582212204A7771BDC14F363E 0xC4 0x5D 0x5D 0xEC DUP10 0xC PUSH1 0x80 0xB0 0xD7 SWAP14 DUP9 0x23 LOG1 0x49 PUSH30 0x267308BB078536CA64736F6C634300080C00330000000000000000000000 "
		},
		"gasEstimates": {
			"creation": {
				"codeDepositCost": "680200",
				"executionCost": "715",
				"totalCost": "680915"
			},
			"external": {
				"age(uint256)": "infinite",
				"country(string)": "infinite",
				"gender(uint256)": "infinite",
				"numbers(uint256)": "infinite",
				"test(uint256)": "infinite",
				"testabc(uint256)": "infinite"
			}
		},
		"methodIdentifiers": {
			"age(uint256)": "6ba61782",
			"country(string)": "3ad06b25",
			"gender(uint256)": "7ea517f1",
			"numbers(uint256)": "d39fa233",
			"test(uint256)": "29e99f07",
			"testabc(uint256)": "0ce67879"
		}
	},
	"abi": [
		{
			"inputs": [
				{
					"internalType": "uint256",
					"name": "classification",
					"type": "uint256"
				}
			],
			"name": "age",
			"outputs": [
				{
					"internalType": "string",
					"name": "",
					"type": "string"
				}
			],
			"stateMutability": "pure",
			"type": "function"
		},
		{
			"inputs": [
				{
					"internalType": "string",
					"name": "nationality",
					"type": "string"
				}
			],
			"name": "country",
			"outputs": [
				{
					"internalType": "string",
					"name": "",
					"type": "string"
				}
			],
			"stateMutability": "pure",
			"type": "function"
		},
		{
			"inputs": [
				{
					"internalType": "uint256",
					"name": "types",
					"type": "uint256"
				}
			],
			"name": "gender",
			"outputs": [
				{
					"internalType": "string",
					"name": "",
					"type": "string"
				}
			],
			"stateMutability": "pure",
			"type": "function"
		},
		{
			"inputs": [
				{
					"internalType": "uint256",
					"name": "random",
					"type": "uint256"
				}
			],
			"name": "numbers",
			"outputs": [
				{
					"internalType": "uint256",
					"name": "",
					"type": "uint256"
				}
			],
			"stateMutability": "pure",
			"type": "function"
		},
		{
			"inputs": [
				{
					"internalType": "uint256",
					"name": "xy",
					"type": "uint256"
				}
			],
			"name": "test",
			"outputs": [
				{
					"internalType": "uint256",
					"name": "",
					"type": "uint256"
				}
			],
			"stateMutability": "pure",
			"type": "function"
		},
		{
			"inputs": [
				{
					"internalType": "uint256",
					"name": "xyz",
					"type": "uint256"
				}
			],
			"name": "testabc",
			"outputs": [
				{
					"internalType": "string",
					"name": "",
					"type": "string"
				}
			],
			"stateMutability": "pure",
			"type": "function"
		}
	]
}